{
  "contractName": "PofiToken",
  "abi": [
    {
      "inputs": [],
      "stateMutability": "nonpayable",
      "type": "constructor"
    },
    {
      "anonymous": false,
      "inputs": [
        {
          "indexed": true,
          "internalType": "address",
          "name": "owner",
          "type": "address"
        },
        {
          "indexed": true,
          "internalType": "address",
          "name": "spender",
          "type": "address"
        },
        {
          "indexed": false,
          "internalType": "uint256",
          "name": "value",
          "type": "uint256"
        }
      ],
      "name": "Approval",
      "type": "event"
    },
    {
      "anonymous": false,
      "inputs": [
        {
          "indexed": true,
          "internalType": "address",
          "name": "previousOwner",
          "type": "address"
        },
        {
          "indexed": true,
          "internalType": "address",
          "name": "newOwner",
          "type": "address"
        }
      ],
      "name": "OwnershipTransferred",
      "type": "event"
    },
    {
      "anonymous": false,
      "inputs": [
        {
          "indexed": false,
          "internalType": "address",
          "name": "account",
          "type": "address"
        }
      ],
      "name": "Paused",
      "type": "event"
    },
    {
      "anonymous": false,
      "inputs": [
        {
          "indexed": true,
          "internalType": "address",
          "name": "from",
          "type": "address"
        },
        {
          "indexed": true,
          "internalType": "address",
          "name": "to",
          "type": "address"
        },
        {
          "indexed": false,
          "internalType": "uint256",
          "name": "value",
          "type": "uint256"
        }
      ],
      "name": "Transfer",
      "type": "event"
    },
    {
      "anonymous": false,
      "inputs": [
        {
          "indexed": false,
          "internalType": "address",
          "name": "account",
          "type": "address"
        }
      ],
      "name": "Unpaused",
      "type": "event"
    },
    {
      "inputs": [
        {
          "internalType": "address",
          "name": "owner",
          "type": "address"
        },
        {
          "internalType": "address",
          "name": "spender",
          "type": "address"
        }
      ],
      "name": "allowance",
      "outputs": [
        {
          "internalType": "uint256",
          "name": "",
          "type": "uint256"
        }
      ],
      "stateMutability": "view",
      "type": "function",
      "constant": true
    },
    {
      "inputs": [
        {
          "internalType": "address",
          "name": "spender",
          "type": "address"
        },
        {
          "internalType": "uint256",
          "name": "amount",
          "type": "uint256"
        }
      ],
      "name": "approve",
      "outputs": [
        {
          "internalType": "bool",
          "name": "",
          "type": "bool"
        }
      ],
      "stateMutability": "nonpayable",
      "type": "function"
    },
    {
      "inputs": [
        {
          "internalType": "address",
          "name": "account",
          "type": "address"
        }
      ],
      "name": "balanceOf",
      "outputs": [
        {
          "internalType": "uint256",
          "name": "",
          "type": "uint256"
        }
      ],
      "stateMutability": "view",
      "type": "function",
      "constant": true
    },
    {
      "inputs": [],
      "name": "decimals",
      "outputs": [
        {
          "internalType": "uint8",
          "name": "",
          "type": "uint8"
        }
      ],
      "stateMutability": "view",
      "type": "function",
      "constant": true
    },
    {
      "inputs": [
        {
          "internalType": "address",
          "name": "spender",
          "type": "address"
        },
        {
          "internalType": "uint256",
          "name": "subtractedValue",
          "type": "uint256"
        }
      ],
      "name": "decreaseAllowance",
      "outputs": [
        {
          "internalType": "bool",
          "name": "",
          "type": "bool"
        }
      ],
      "stateMutability": "nonpayable",
      "type": "function"
    },
    {
      "inputs": [
        {
          "internalType": "address",
          "name": "spender",
          "type": "address"
        },
        {
          "internalType": "uint256",
          "name": "addedValue",
          "type": "uint256"
        }
      ],
      "name": "increaseAllowance",
      "outputs": [
        {
          "internalType": "bool",
          "name": "",
          "type": "bool"
        }
      ],
      "stateMutability": "nonpayable",
      "type": "function"
    },
    {
      "inputs": [],
      "name": "name",
      "outputs": [
        {
          "internalType": "string",
          "name": "",
          "type": "string"
        }
      ],
      "stateMutability": "view",
      "type": "function",
      "constant": true
    },
    {
      "inputs": [],
      "name": "owner",
      "outputs": [
        {
          "internalType": "address",
          "name": "",
          "type": "address"
        }
      ],
      "stateMutability": "view",
      "type": "function",
      "constant": true
    },
    {
      "inputs": [],
      "name": "paused",
      "outputs": [
        {
          "internalType": "bool",
          "name": "",
          "type": "bool"
        }
      ],
      "stateMutability": "view",
      "type": "function",
      "constant": true
    },
    {
      "inputs": [],
      "name": "renounceOwnership",
      "outputs": [],
      "stateMutability": "nonpayable",
      "type": "function"
    },
    {
      "inputs": [],
      "name": "symbol",
      "outputs": [
        {
          "internalType": "string",
          "name": "",
          "type": "string"
        }
      ],
      "stateMutability": "view",
      "type": "function",
      "constant": true
    },
    {
      "inputs": [],
      "name": "totalSupply",
      "outputs": [
        {
          "internalType": "uint256",
          "name": "",
          "type": "uint256"
        }
      ],
      "stateMutability": "view",
      "type": "function",
      "constant": true
    },
    {
      "inputs": [
        {
          "internalType": "address",
          "name": "recipient",
          "type": "address"
        },
        {
          "internalType": "uint256",
          "name": "amount",
          "type": "uint256"
        }
      ],
      "name": "transfer",
      "outputs": [
        {
          "internalType": "bool",
          "name": "",
          "type": "bool"
        }
      ],
      "stateMutability": "nonpayable",
      "type": "function"
    },
    {
      "inputs": [
        {
          "internalType": "address",
          "name": "sender",
          "type": "address"
        },
        {
          "internalType": "address",
          "name": "recipient",
          "type": "address"
        },
        {
          "internalType": "uint256",
          "name": "amount",
          "type": "uint256"
        }
      ],
      "name": "transferFrom",
      "outputs": [
        {
          "internalType": "bool",
          "name": "",
          "type": "bool"
        }
      ],
      "stateMutability": "nonpayable",
      "type": "function"
    },
    {
      "inputs": [
        {
          "internalType": "address",
          "name": "newOwner",
          "type": "address"
        }
      ],
      "name": "transferOwnership",
      "outputs": [],
      "stateMutability": "nonpayable",
      "type": "function"
    },
    {
      "inputs": [],
      "name": "pause",
      "outputs": [],
      "stateMutability": "nonpayable",
      "type": "function"
    },
    {
      "inputs": [],
      "name": "unpause",
      "outputs": [],
      "stateMutability": "nonpayable",
      "type": "function"
    }
  ],
  "bytecode": "0x60806040523480156200001157600080fd5b506040518060400160405280600981526020017f506f6669546f6b656e00000000000000000000000000000000000000000000008152506040518060400160405280600481526020017f504f464900000000000000000000000000000000000000000000000000000000815250816003908051906020019062000096929190620003c6565b508060049080519060200190620000af929190620003c6565b5050506000600560006101000a81548160ff0219169083151502179055506000620000df620001c460201b60201c565b905080600560016101000a81548173ffffffffffffffffffffffffffffffffffffffff021916908373ffffffffffffffffffffffffffffffffffffffff1602179055508073ffffffffffffffffffffffffffffffffffffffff16600073ffffffffffffffffffffffffffffffffffffffff167f8be0079c531659141344cd1fd0a4f28419497f9722a3daafe3b4186f6b6457e060405160405180910390a350620001be3362000193620001cc60201b60201c565b600a620001a19190620005ff565b631dcd6500620001b291906200073c565b620001d560201b60201c565b620008a7565b600033905090565b60006012905090565b600073ffffffffffffffffffffffffffffffffffffffff168273ffffffffffffffffffffffffffffffffffffffff16141562000248576040517f08c379a00000000000000000000000000000000000000000000000000000000081526004016200023f90620004f7565b60405180910390fd5b6200025c600083836200033a60201b60201c565b806002600082825462000270919062000547565b92505081905550806000808473ffffffffffffffffffffffffffffffffffffffff1673ffffffffffffffffffffffffffffffffffffffff1681526020019081526020016000206000828254620002c7919062000547565b925050819055508173ffffffffffffffffffffffffffffffffffffffff16600073ffffffffffffffffffffffffffffffffffffffff167fddf252ad1be2c89b69c2b068fc378daa952ba7f163c4a11628f55a4df523b3ef836040516200032e919062000519565b60405180910390a35050565b6200034a620003aa60201b60201c565b156200038d576040517f08c379a00000000000000000000000000000000000000000000000000000000081526004016200038490620004d5565b60405180910390fd5b620003a5838383620003c160201b62000c551760201c565b505050565b6000600560009054906101000a900460ff16905090565b505050565b828054620003d490620007b4565b90600052602060002090601f016020900481019282620003f8576000855562000444565b82601f106200041357805160ff191683800117855562000444565b8280016001018555821562000444579182015b828111156200044357825182559160200191906001019062000426565b5b50905062000453919062000457565b5090565b5b808211156200047257600081600090555060010162000458565b5090565b60006200048560108362000536565b9150620004928262000855565b602082019050919050565b6000620004ac601f8362000536565b9150620004b9826200087e565b602082019050919050565b620004cf816200079d565b82525050565b60006020820190508181036000830152620004f08162000476565b9050919050565b6000602082019050818103600083015262000512816200049d565b9050919050565b6000602082019050620005306000830184620004c4565b92915050565b600082825260208201905092915050565b600062000554826200079d565b915062000561836200079d565b9250827fffffffffffffffffffffffffffffffffffffffffffffffffffffffffffffffff03821115620005995762000598620007ea565b5b828201905092915050565b6000808291508390505b6001851115620005f657808604811115620005ce57620005cd620007ea565b5b6001851615620005de5780820291505b8081029050620005ee8562000848565b9450620005ae565b94509492505050565b60006200060c826200079d565b91506200061983620007a7565b9250620006487fffffffffffffffffffffffffffffffffffffffffffffffffffffffffffffffff848462000650565b905092915050565b60008262000662576001905062000735565b8162000672576000905062000735565b81600181146200068b57600281146200069657620006cc565b600191505062000735565b60ff841115620006ab57620006aa620007ea565b5b8360020a915084821115620006c557620006c4620007ea565b5b5062000735565b5060208310610133831016604e8410600b8410161715620007065782820a9050838111156200070057620006ff620007ea565b5b62000735565b620007158484846001620005a4565b925090508184048111156200072f576200072e620007ea565b5b81810290505b9392505050565b600062000749826200079d565b915062000756836200079d565b9250817fffffffffffffffffffffffffffffffffffffffffffffffffffffffffffffffff0483118215151615620007925762000791620007ea565b5b828202905092915050565b6000819050919050565b600060ff82169050919050565b60006002820490506001821680620007cd57607f821691505b60208210811415620007e457620007e362000819565b5b50919050565b7f4e487b7100000000000000000000000000000000000000000000000000000000600052601160045260246000fd5b7f4e487b7100000000000000000000000000000000000000000000000000000000600052602260045260246000fd5b60008160011c9050919050565b7f5061757361626c653a2070617573656400000000000000000000000000000000600082015250565b7f45524332303a206d696e7420746f20746865207a65726f206164647265737300600082015250565b611c3080620008b76000396000f3fe608060405234801561001057600080fd5b506004361061010b5760003560e01c806370a08231116100a257806395d89b411161007157806395d89b4114610284578063a457c2d7146102a2578063a9059cbb146102d2578063dd62ed3e14610302578063f2fde38b146103325761010b565b806370a0823114610222578063715018a6146102525780638456cb591461025c5780638da5cb5b146102665761010b565b8063313ce567116100de578063313ce567146101ac57806339509351146101ca5780633f4ba83a146101fa5780635c975abb146102045761010b565b806306fdde0314610110578063095ea7b31461012e57806318160ddd1461015e57806323b872dd1461017c575b600080fd5b61011861034e565b6040516101259190611586565b60405180910390f35b6101486004803603810190610143919061131e565b6103e0565b604051610155919061156b565b60405180910390f35b6101666103fe565b6040516101739190611708565b60405180910390f35b610196600480360381019061019191906112cf565b610408565b6040516101a3919061156b565b60405180910390f35b6101b4610500565b6040516101c19190611723565b60405180910390f35b6101e460048036038101906101df919061131e565b610509565b6040516101f1919061156b565b60405180910390f35b6102026105b5565b005b61020c61063b565b604051610219919061156b565b60405180910390f35b61023c6004803603810190610237919061126a565b610652565b6040516102499190611708565b60405180910390f35b61025a61069a565b005b6102646107d7565b005b61026e61085d565b60405161027b9190611550565b60405180910390f35b61028c610887565b6040516102999190611586565b60405180910390f35b6102bc60048036038101906102b7919061131e565b610919565b6040516102c9919061156b565b60405180910390f35b6102ec60048036038101906102e7919061131e565b610a04565b6040516102f9919061156b565b60405180910390f35b61031c60048036038101906103179190611293565b610a22565b6040516103299190611708565b60405180910390f35b61034c6004803603810190610347919061126a565b610aa9565b005b60606003805461035d90611838565b80601f016020809104026020016040519081016040528092919081815260200182805461038990611838565b80156103d65780601f106103ab576101008083540402835291602001916103d6565b820191906000526020600020905b8154815290600101906020018083116103b957829003601f168201915b5050505050905090565b60006103f46103ed610c5a565b8484610c62565b6001905092915050565b6000600254905090565b6000610415848484610e2d565b6000600160008673ffffffffffffffffffffffffffffffffffffffff1673ffffffffffffffffffffffffffffffffffffffff1681526020019081526020016000206000610460610c5a565b73ffffffffffffffffffffffffffffffffffffffff1673ffffffffffffffffffffffffffffffffffffffff168152602001908152602001600020549050828110156104e0576040517f08c379a00000000000000000000000000000000000000000000000000000000081526004016104d790611668565b60405180910390fd5b6104f4856104ec610c5a565b858403610c62565b60019150509392505050565b60006012905090565b60006105ab610516610c5a565b848460016000610524610c5a565b73ffffffffffffffffffffffffffffffffffffffff1673ffffffffffffffffffffffffffffffffffffffff16815260200190815260200160002060008873ffffffffffffffffffffffffffffffffffffffff1673ffffffffffffffffffffffffffffffffffffffff168152602001908152602001600020546105a6919061175a565b610c62565b6001905092915050565b6105bd610c5a565b73ffffffffffffffffffffffffffffffffffffffff166105db61085d565b73ffffffffffffffffffffffffffffffffffffffff1614610631576040517f08c379a000000000000000000000000000000000000000000000000000000000815260040161062890611688565b60405180910390fd5b6106396110a3565b565b6000600560009054906101000a900460ff16905090565b60008060008373ffffffffffffffffffffffffffffffffffffffff1673ffffffffffffffffffffffffffffffffffffffff168152602001908152602001600020549050919050565b6106a2610c5a565b73ffffffffffffffffffffffffffffffffffffffff166106c061085d565b73ffffffffffffffffffffffffffffffffffffffff1614610716576040517f08c379a000000000000000000000000000000000000000000000000000000000815260040161070d90611688565b60405180910390fd5b600073ffffffffffffffffffffffffffffffffffffffff16600560019054906101000a900473ffffffffffffffffffffffffffffffffffffffff1673ffffffffffffffffffffffffffffffffffffffff167f8be0079c531659141344cd1fd0a4f28419497f9722a3daafe3b4186f6b6457e060405160405180910390a36000600560016101000a81548173ffffffffffffffffffffffffffffffffffffffff021916908373ffffffffffffffffffffffffffffffffffffffff160217905550565b6107df610c5a565b73ffffffffffffffffffffffffffffffffffffffff166107fd61085d565b73ffffffffffffffffffffffffffffffffffffffff1614610853576040517f08c379a000000000000000000000000000000000000000000000000000000000815260040161084a90611688565b60405180910390fd5b61085b611145565b565b6000600560019054906101000a900473ffffffffffffffffffffffffffffffffffffffff16905090565b60606004805461089690611838565b80601f01602080910402602001604051908101604052809291908181526020018280546108c290611838565b801561090f5780601f106108e45761010080835404028352916020019161090f565b820191906000526020600020905b8154815290600101906020018083116108f257829003601f168201915b5050505050905090565b60008060016000610928610c5a565b73ffffffffffffffffffffffffffffffffffffffff1673ffffffffffffffffffffffffffffffffffffffff16815260200190815260200160002060008573ffffffffffffffffffffffffffffffffffffffff1673ffffffffffffffffffffffffffffffffffffffff168152602001908152602001600020549050828110156109e5576040517f08c379a00000000000000000000000000000000000000000000000000000000081526004016109dc906116e8565b60405180910390fd5b6109f96109f0610c5a565b85858403610c62565b600191505092915050565b6000610a18610a11610c5a565b8484610e2d565b6001905092915050565b6000600160008473ffffffffffffffffffffffffffffffffffffffff1673ffffffffffffffffffffffffffffffffffffffff16815260200190815260200160002060008373ffffffffffffffffffffffffffffffffffffffff1673ffffffffffffffffffffffffffffffffffffffff16815260200190815260200160002054905092915050565b610ab1610c5a565b73ffffffffffffffffffffffffffffffffffffffff16610acf61085d565b73ffffffffffffffffffffffffffffffffffffffff1614610b25576040517f08c379a0000000000000000000000000000000000000000000000000000000008152600401610b1c90611688565b60405180910390fd5b600073ffffffffffffffffffffffffffffffffffffffff168173ffffffffffffffffffffffffffffffffffffffff161415610b95576040517f08c379a0000000000000000000000000000000000000000000000000000000008152600401610b8c906115e8565b60405180910390fd5b8073ffffffffffffffffffffffffffffffffffffffff16600560019054906101000a900473ffffffffffffffffffffffffffffffffffffffff1673ffffffffffffffffffffffffffffffffffffffff167f8be0079c531659141344cd1fd0a4f28419497f9722a3daafe3b4186f6b6457e060405160405180910390a380600560016101000a81548173ffffffffffffffffffffffffffffffffffffffff021916908373ffffffffffffffffffffffffffffffffffffffff16021790555050565b505050565b600033905090565b600073ffffffffffffffffffffffffffffffffffffffff168373ffffffffffffffffffffffffffffffffffffffff161415610cd2576040517f08c379a0000000000000000000000000000000000000000000000000000000008152600401610cc9906116c8565b60405180910390fd5b600073ffffffffffffffffffffffffffffffffffffffff168273ffffffffffffffffffffffffffffffffffffffff161415610d42576040517f08c379a0000000000000000000000000000000000000000000000000000000008152600401610d3990611608565b60405180910390fd5b80600160008573ffffffffffffffffffffffffffffffffffffffff1673ffffffffffffffffffffffffffffffffffffffff16815260200190815260200160002060008473ffffffffffffffffffffffffffffffffffffffff1673ffffffffffffffffffffffffffffffffffffffff168152602001908152602001600020819055508173ffffffffffffffffffffffffffffffffffffffff168373ffffffffffffffffffffffffffffffffffffffff167f8c5be1e5ebec7d5bd14f71427d1e84f3dd0314c0f7b2291e5b200ac8c7c3b92583604051610e209190611708565b60405180910390a3505050565b600073ffffffffffffffffffffffffffffffffffffffff168373ffffffffffffffffffffffffffffffffffffffff161415610e9d576040517f08c379a0000000000000000000000000000000000000000000000000000000008152600401610e94906116a8565b60405180910390fd5b600073ffffffffffffffffffffffffffffffffffffffff168273ffffffffffffffffffffffffffffffffffffffff161415610f0d576040517f08c379a0000000000000000000000000000000000000000000000000000000008152600401610f04906115a8565b60405180910390fd5b610f188383836111e8565b60008060008573ffffffffffffffffffffffffffffffffffffffff1673ffffffffffffffffffffffffffffffffffffffff16815260200190815260200160002054905081811015610f9e576040517f08c379a0000000000000000000000000000000000000000000000000000000008152600401610f9590611628565b60405180910390fd5b8181036000808673ffffffffffffffffffffffffffffffffffffffff1673ffffffffffffffffffffffffffffffffffffffff16815260200190815260200160002081905550816000808573ffffffffffffffffffffffffffffffffffffffff1673ffffffffffffffffffffffffffffffffffffffff1681526020019081526020016000206000828254611031919061175a565b925050819055508273ffffffffffffffffffffffffffffffffffffffff168473ffffffffffffffffffffffffffffffffffffffff167fddf252ad1be2c89b69c2b068fc378daa952ba7f163c4a11628f55a4df523b3ef846040516110959190611708565b60405180910390a350505050565b6110ab61063b565b6110ea576040517f08c379a00000000000000000000000000000000000000000000000000000000081526004016110e1906115c8565b60405180910390fd5b6000600560006101000a81548160ff0219169083151502179055507f5db9ee0a495bf2e6ff9c91a7834c1ba4fdd244a5e8aa4e537bd38aeae4b073aa61112e610c5a565b60405161113b9190611550565b60405180910390a1565b61114d61063b565b1561118d576040517f08c379a000000000000000000000000000000000000000000000000000000000815260040161118490611648565b60405180910390fd5b6001600560006101000a81548160ff0219169083151502179055507f62e78cea01bee320cd4e420270b5ea74000d11b0c9f74754ebdbfc544b05a2586111d1610c5a565b6040516111de9190611550565b60405180910390a1565b6111f061063b565b15611230576040517f08c379a000000000000000000000000000000000000000000000000000000000815260040161122790611648565b60405180910390fd5b61123b838383610c55565b505050565b60008135905061124f81611bcc565b92915050565b60008135905061126481611be3565b92915050565b60006020828403121561127c57600080fd5b600061128a84828501611240565b91505092915050565b600080604083850312156112a657600080fd5b60006112b485828601611240565b92505060206112c585828601611240565b9150509250929050565b6000806000606084860312156112e457600080fd5b60006112f286828701611240565b935050602061130386828701611240565b925050604061131486828701611255565b9150509250925092565b6000806040838503121561133157600080fd5b600061133f85828601611240565b925050602061135085828601611255565b9150509250929050565b611363816117b0565b82525050565b611372816117c2565b82525050565b60006113838261173e565b61138d8185611749565b935061139d818560208601611805565b6113a6816118c8565b840191505092915050565b60006113be602383611749565b91506113c9826118d9565b604082019050919050565b60006113e1601483611749565b91506113ec82611928565b602082019050919050565b6000611404602683611749565b915061140f82611951565b604082019050919050565b6000611427602283611749565b9150611432826119a0565b604082019050919050565b600061144a602683611749565b9150611455826119ef565b604082019050919050565b600061146d601083611749565b915061147882611a3e565b602082019050919050565b6000611490602883611749565b915061149b82611a67565b604082019050919050565b60006114b3602083611749565b91506114be82611ab6565b602082019050919050565b60006114d6602583611749565b91506114e182611adf565b604082019050919050565b60006114f9602483611749565b915061150482611b2e565b604082019050919050565b600061151c602583611749565b915061152782611b7d565b604082019050919050565b61153b816117ee565b82525050565b61154a816117f8565b82525050565b6000602082019050611565600083018461135a565b92915050565b60006020820190506115806000830184611369565b92915050565b600060208201905081810360008301526115a08184611378565b905092915050565b600060208201905081810360008301526115c1816113b1565b9050919050565b600060208201905081810360008301526115e1816113d4565b9050919050565b60006020820190508181036000830152611601816113f7565b9050919050565b600060208201905081810360008301526116218161141a565b9050919050565b600060208201905081810360008301526116418161143d565b9050919050565b6000602082019050818103600083015261166181611460565b9050919050565b6000602082019050818103600083015261168181611483565b9050919050565b600060208201905081810360008301526116a1816114a6565b9050919050565b600060208201905081810360008301526116c1816114c9565b9050919050565b600060208201905081810360008301526116e1816114ec565b9050919050565b600060208201905081810360008301526117018161150f565b9050919050565b600060208201905061171d6000830184611532565b92915050565b60006020820190506117386000830184611541565b92915050565b600081519050919050565b600082825260208201905092915050565b6000611765826117ee565b9150611770836117ee565b9250827fffffffffffffffffffffffffffffffffffffffffffffffffffffffffffffffff038211156117a5576117a461186a565b5b828201905092915050565b60006117bb826117ce565b9050919050565b60008115159050919050565b600073ffffffffffffffffffffffffffffffffffffffff82169050919050565b6000819050919050565b600060ff82169050919050565b60005b83811015611823578082015181840152602081019050611808565b83811115611832576000848401525b50505050565b6000600282049050600182168061185057607f821691505b6020821081141561186457611863611899565b5b50919050565b7f4e487b7100000000000000000000000000000000000000000000000000000000600052601160045260246000fd5b7f4e487b7100000000000000000000000000000000000000000000000000000000600052602260045260246000fd5b6000601f19601f8301169050919050565b7f45524332303a207472616e7366657220746f20746865207a65726f206164647260008201527f6573730000000000000000000000000000000000000000000000000000000000602082015250565b7f5061757361626c653a206e6f7420706175736564000000000000000000000000600082015250565b7f4f776e61626c653a206e6577206f776e657220697320746865207a65726f206160008201527f6464726573730000000000000000000000000000000000000000000000000000602082015250565b7f45524332303a20617070726f766520746f20746865207a65726f20616464726560008201527f7373000000000000000000000000000000000000000000000000000000000000602082015250565b7f45524332303a207472616e7366657220616d6f756e742065786365656473206260008201527f616c616e63650000000000000000000000000000000000000000000000000000602082015250565b7f5061757361626c653a2070617573656400000000000000000000000000000000600082015250565b7f45524332303a207472616e7366657220616d6f756e742065786365656473206160008201527f6c6c6f77616e6365000000000000000000000000000000000000000000000000602082015250565b7f4f776e61626c653a2063616c6c6572206973206e6f7420746865206f776e6572600082015250565b7f45524332303a207472616e736665722066726f6d20746865207a65726f20616460008201527f6472657373000000000000000000000000000000000000000000000000000000602082015250565b7f45524332303a20617070726f76652066726f6d20746865207a65726f2061646460008201527f7265737300000000000000000000000000000000000000000000000000000000602082015250565b7f45524332303a2064656372656173656420616c6c6f77616e63652062656c6f7760008201527f207a65726f000000000000000000000000000000000000000000000000000000602082015250565b611bd5816117b0565b8114611be057600080fd5b50565b611bec816117ee565b8114611bf757600080fd5b5056fea2646970667358221220e39c3e0afa273d646614b5e4b4023553b3301e4f756067f493eb1c48a8adf76064736f6c63430008040033",
  "immutableReferences": {},
  "source": "// SPDX-License-Identifier: MIT\n\npragma solidity ^0.8.0;\n\nimport \"./ERC20.sol\";\nimport \"./Pausable.sol\";\nimport \"./Ownable.sol\";\n\ncontract PofiToken is ERC20, Pausable, Ownable {\n    \n    constructor() ERC20(\"PofiToken\", \"POFI\") {\n        _mint(msg.sender, 500000000 * 10 ** decimals());\n    }\n\n    function pause() public onlyOwner {\n        _pause();\n    }\n\n    function unpause() public onlyOwner {\n        _unpause();\n    }\n\n    function _beforeTokenTransfer(address from, address to, uint256 amount)\n        internal\n        whenNotPaused\n        override\n    {\n        super._beforeTokenTransfer(from, to, amount);\n    }\n    \n}",
  "sourcePath": "/Users/basiliocalixto/projects/bsc/rifa/contracts/PofiToken.sol",
  "compiler": {
    "name": "solc",
    "version": "0.8.4+commit.c7e474f2.Emscripten.clang"
  },
  "schemaVersion": "3.4.1",
  "updatedAt": "2021-06-10T01:54:48.072Z",
  "networkType": "ethereum",
  "devdoc": {
    "kind": "dev",
    "methods": {
      "allowance(address,address)": {
        "details": "See {IERC20-allowance}."
      },
      "approve(address,uint256)": {
        "details": "See {IERC20-approve}. Requirements: - `spender` cannot be the zero address."
      },
      "balanceOf(address)": {
        "details": "See {IERC20-balanceOf}."
      },
      "decimals()": {
        "details": "Returns the number of decimals used to get its user representation. For example, if `decimals` equals `2`, a balance of `505` tokens should be displayed to a user as `5,05` (`505 / 10 ** 2`). Tokens usually opt for a value of 18, imitating the relationship between Ether and Wei. This is the value {ERC20} uses, unless this function is overridden; NOTE: This information is only used for _display_ purposes: it in no way affects any of the arithmetic of the contract, including {IERC20-balanceOf} and {IERC20-transfer}."
      },
      "decreaseAllowance(address,uint256)": {
        "details": "Atomically decreases the allowance granted to `spender` by the caller. This is an alternative to {approve} that can be used as a mitigation for problems described in {IERC20-approve}. Emits an {Approval} event indicating the updated allowance. Requirements: - `spender` cannot be the zero address. - `spender` must have allowance for the caller of at least `subtractedValue`."
      },
      "increaseAllowance(address,uint256)": {
        "details": "Atomically increases the allowance granted to `spender` by the caller. This is an alternative to {approve} that can be used as a mitigation for problems described in {IERC20-approve}. Emits an {Approval} event indicating the updated allowance. Requirements: - `spender` cannot be the zero address."
      },
      "name()": {
        "details": "Returns the name of the token."
      },
      "owner()": {
        "details": "Returns the address of the current owner."
      },
      "paused()": {
        "details": "Returns true if the contract is paused, and false otherwise."
      },
      "renounceOwnership()": {
        "details": "Leaves the contract without owner. It will not be possible to call `onlyOwner` functions anymore. Can only be called by the current owner. NOTE: Renouncing ownership will leave the contract without an owner, thereby removing any functionality that is only available to the owner."
      },
      "symbol()": {
        "details": "Returns the symbol of the token, usually a shorter version of the name."
      },
      "totalSupply()": {
        "details": "See {IERC20-totalSupply}."
      },
      "transfer(address,uint256)": {
        "details": "See {IERC20-transfer}. Requirements: - `recipient` cannot be the zero address. - the caller must have a balance of at least `amount`."
      },
      "transferFrom(address,address,uint256)": {
        "details": "See {IERC20-transferFrom}. Emits an {Approval} event indicating the updated allowance. This is not required by the EIP. See the note at the beginning of {ERC20}. Requirements: - `sender` and `recipient` cannot be the zero address. - `sender` must have a balance of at least `amount`. - the caller must have allowance for ``sender``'s tokens of at least `amount`."
      },
      "transferOwnership(address)": {
        "details": "Transfers ownership of the contract to a new account (`newOwner`). Can only be called by the current owner."
      }
    },
    "version": 1
  },
  "userdoc": {
    "kind": "user",
    "methods": {},
    "version": 1
  }
}